:020000040800F2
:10000000400A00208D010008C12E000801240008CC
:1000100000000000000000000000000000000000E0
:10002000000000000000000000000000C52E0008D5
:100030000000000000000000C32E0008C72E0008CA
:100040009F010008000000009F0100089F010008B8
:100050009F0100089F0100089F0100089F01000800
:1000600000000000D90700089F0100089F01000858
:10007000A90600089F0100089F0100080000000079
:100080009F01000800000000000000005D2F000834
:10009000000000009F0100089F01000805240008DF
:1000A000000000009F010008000000009F01000800
:1000B00000F002F800F03EF80CA030C80838241810
:1000C0002D18671EA246AB4654465D46AC4201D190
:1000D00000F030F87E460F3EB6460FCC0126334284
:1000E00000D0FB1A3343A246AB46184784360000C3
:1000F000A4360000103A02D378C878C1FAD8520763
:1001000001D330C830C101D504680C6070470000CD
:100110000023002400250026103A01D378C1FBD823
:10012000520700D330C100D50B6070471FB51FBD0B
:1001300010B510BD03488546FFF7F8FF03F080F9BE
:1001400000F052FA400A002003B4FFF7F1FF03BCAD
:1001500000F0A2FA70B505460C46164602E00FCC38
:100160000FC5103E102EFAD2082E02D303CC03C5C1
:10017000083E042E07D301CC01C5361F03E02178C9
:100180002970641C6D1C761EF9D270BD044880472E
:1001900004480047FEE7FEE7FEE7FEE7FEE7FEE76E
:1001A000592F0008B100000810B5202A04DB0846CA
:1001B000203AD040002110BD0B462024D340D0402F
:1001C000A21A91400843194610BD01E004C0091F5E
:1001D0000429FBD28B0701D50280801CC90700D0FF
:1001E0000270704700290BD0C30702D00270401C78
:1001F000491E022904D3830702D50280801C891E70
:10020000E3E70022EEE70022DFE700000022030917
:100210008B422CD3030A8B4211D300239C464EE021
:1002200003460B433CD4002243088B4231D30309DD
:100230008B421CD3030A8B4201D394463FE0C3098F
:100240008B4201D3CB01C01A524183098B4201D3A7
:100250008B01C01A524143098B4201D34B01C01A92
:10026000524103098B4201D30B01C01A5241C3080A
:100270008B4201D3CB00C01A524183088B4201D379
:100280008B00C01A524143088B4201D34B00C01A65
:100290005241411A00D201465241104670475DE07A
:1002A000CA0F00D04942031000D3404253409C463D
:1002B000002203098B422DD3030A8B4212D38901FA
:1002C000FC2212BA030A8B420CD3890192118B4291
:1002D00008D3890192118B4204D389013AD092113B
:1002E00000E08909C3098B4201D3CB01C01A5241F6
:1002F00083098B4201D38B01C01A524143098B42BF
:1003000001D34B01C01A524103098B4201D30B01A7
:10031000C01A5241C3088B4201D3CB00C01A5241CC
:1003200083088B4201D38B00C01A5241D9D24308B3
:100330008B4201D34B00C01A5241411A00D20146F0
:100340005241104663465B1001D34042002B00D55A
:100350004942704763465B1000D3404201B50549EE
:10036000002802DC491C084000E00846C046C046A0
:1003700002BD00BFFFFFFF7FF0B5FF252D04C609BA
:10038000C209FF2704462E400137CB093E434840AF
:100390002A402B400746002A6BD0002B69D0AA4286
:1003A00067D0AB4265D0002800DA32460125ED0562
:1003B00029432C4309022002090AD21A4B0C7F243C
:1003C000E31A434C000A7C44E35C7D2424041219A4
:1003D00014145B00A218884201D3521C00E04000B4
:1003E00049420C465C4324115C43DB016415E3186D
:1003F000040A5C43C502200D0C4644436419250AD7
:100400005D432303EC0C0D46654300030019EB1814
:100410004C42A34201D35B18401CD4052018002B8A
:1004200007D05B00C91804D3401C002901D1400843
:1004300040003F2189048A4209D3002A08DC1106C2
:10044000090F04D0032149074018C00FC007F0BDB1
:1004500001224100120689187F2252069142F6D2EB
:1004600005214907C84201D59010F0BDFF20C00505
:10047000F0BD002F00DA32461648AA4207D2AB423E
:1004800005D21902090E17D0F80FC007F0BDFF25DD
:1004900063002D06AB42F9D84900A942F6D8AB4219
:1004A00001D1A942F2D0A94201D1002101E06100AD
:1004B0004908D0050843F0BD1102090EFBD0FF200A
:1004C0000243D005F0BD0A460146104654E700003D
:1004D0002E3300000000C07F10B501469E240002AC
:1004E000CA15A307002A02D01843002A04DBA21A67
:1004F000002A0CDDD04010BD1206120E01D14000C2
:100500004008A21A03D4D04040420028F3DDFF2265
:1005100048001206904201D9002010BDC817C04300
:10052000584010BD1F22030C02D10F2200041CD022
:10053000030E01D10002083A030F01D10001121F7E
:10054000830F01D18000921E002801DB4000521E63
:10055000D2055118021251181922904004D3491C97
:10056000002801D14908490008467047C10FC90752
:1005700000D04042012292071143D3E701218907AD
:10058000D0E7000010B5FF231B0644009C421DD895
:100590004C009C421AD80346124A0B4307D4401A17
:1005A00002D3EFF3008010BDEFF3008010BD081AF6
:1005B00003D3EFF30080904305E0EFF300800121C7
:1005C0009043C907084380F3008810BD0D231B0426
:1005D0001A4204D01146002000F00EF810BD00F0C1
:1005E00023F810BD0000009010B50446C046C04678
:1005F0002046FFF7A9FD10BDC80212D54803400FE1
:10060000002804D0C803C043012188407047EFF39D
:1006100000800001000903210907084380F30088D6
:10062000704700207047000010B5024800F004F841
:1006300010BD00000000C07F10B50C461107090F67
:10064000092904D00A290AD008290CD104E011464E
:100650000820FFF7D1FF06E0510606D501E051065C
:1006600001D50120C007214610BDD10607D50101E3
:100670000909CC084907000E0006044309E0410FB0
:1006800020024907000A0143200E00061D22D14125
:1006900001430846E7E7000001491820ABBEFEE72A
:1006A000260002007047000080B5024800F073F990
:1006B00080BDC0465004002080B50146406A826B70
:1006C00050231A4204D0006B026B0846904780BD4D
:1006D00001214A02836B134383630268D3681B05BD
:1006E0009B0F1AD1837E002B17D113681B0714D5DB
:1006F00093685B070AD451680C2399435160FF212A
:100700000231826B8A43511C816306E0826B202395
:1007100013438363C26B0A43C26300F039F980BD9F
:1007200080B5406A816B40220A438263C16B042218
:100730000A43C26300F02EF980BD80B5406A00F024
:1007400028F980BDF0B581B0044600270097006805
:10075000816803220A40012A05D10168C90735D101
:10076000C168090432D481681A4A114208D0A06BCA
:1007700010210143A163E06B01252843E06326E0DB
:1007800081680125294381607D4800687D49FFF724
:100790003DFD00900098002802D00098401EF8E728
:1007A00000F04CFD064620680068C0070ED100F03E
:1007B00045FD811B20680329F6D30168C907F3D1E1
:1007C000A06B10210143A163E06BD6E73D462846AC
:1007D00001B0F0BD1700008080B5024800F0ADFA0E
:1007E00080BDC04690040020EFF3108072B6FEE793
:1007F00010B525480168C90601D4002105E0094962
:10080000CA6902231343CB6110210268520706D53F
:10081000044AD36901241C43D461042211430160BA
:1008200010BDC04618060020F0B581B0054600F0A6
:1008300005FD0146144F3868C00710D1386880069E
:1008400001D5202038603868C00604D438684007D5
:1008500001D4002408E0FFF7CBFF012404E00324C7
:100860006E1C04D0002D07D1204601B0F0BD3868C1
:10087000C007E3D0002EFAD0009100F0DFFC009911
:10088000401AA842F3D9EFE70C200240F0B583B03C
:10089000002302933422825C012A01D1022058E015
:1008A0000193074634370668B268520716D400979A
:1008B0000D684A6801242746AF402F4B9A4214D155
:1008C000B06AB843B0622846A0431028019E304663
:1008D000009F3DD1102D1AD02C4819E0816B2022A9
:1008E0000A4382630120019E32E0B26A3A43B26257
:1008F000C06A421E072A2ED22846A0431028019E15
:100900003046009F24D1102D07D0A00506E01E48D8
:100910001A490A6802400A6019E0E00517490A68A6
:1009200002430A60102D304612D11548006815495F
:10093000FFF76CFC0A2141430291029800283046DF
:1009400006D00298401E029002980028F9D1304645
:100950003E7003B0F0BD22079042CDD072690720EF
:10096000024089689142C7D0726982437261014036
:10097000706908437061BFE701100000082701405B
:100980000000002040420F00FFFF7FFFFFFFBFFF7E
:1009900070477047704710B5044600680168490702
:1009A00002D54168490705D40168090730D5416877
:1009B00009072DD5A16BC90604D401214902A26BF8
:1009C0000A43A263C1680905890F1BD1A17E0029D2
:1009D00018D10168090715D5816849070AD441680B
:1009E0000C2291434160FF200230A16B8143481CDF
:1009F000A06307E0A06B20210143A163E06B01210C
:100A00000143E1632046FFF7C3FF20680C2101602A
:100A1000016809060DD5416809060AD501200004C0
:100A2000A16B0143A163204600F0C4F82068802137
:100A300001600168C90614D54168C90611D5A16ACB
:100A4000012902D0C168C90709D0E16B02220A431B
:100A5000E263102101602046FFF79CFF206810210F
:100A6000016010BDF0B581B0002864D00446064690
:100A7000243605463835806B002805D100203074B7
:100A8000E063204600F098F82868C0064DD420683E
:100A90008168490749D4812149002A688A43911C09
:100AA0002960826803210A40012A05D10268D20721
:100AB0000ED1C26812040BD4C26818239A43A368EB
:100AC0001343C360890702698A4361681143016166
:100AD000C168364A0A40C260A16A491E4A1E914155
:100AE00009030091227E9203637EDB031343A27EFF
:100AF00057031F43E36821693B43009F3B43891E23
:100B00004F424F41BF001F43317849003943E37ED4
:100B1000012B16D1002A11D0A26B20231343A3630B
:100B2000E26B01231343E3630BE0286810210143C8
:100B30000120296000E0012001B0F0BD0122120473
:100B40001143E269FF23C2339A4202D00A43216A69
:100B50001143C2680A43C260E26A531E072B20D2C7
:100B600043690726B34343613240436913434361FA
:100B7000C0680F4A02408A4207D10020E063A26B9E
:100B80000121114302229143D3E7A06B10210143BD
:100B900002208143A163E16B012001433C342546DF
:100BA000C7E701231B079A42DAD0E1E71902FEFFEB
:100BB000E7FF3F8370470000F0B587B0044600268A
:100BC000069605960068204988423BD101277802A5
:100BD0001E494A6802434A604A68024001920198ED
:100BE00078040A6802430A6009680140019104968A
:100BF000032003901020029001980920C00602A94A
:100C000000F036FA124D2020B9023A028023114F2B
:100C10002F606E60AE60EB602A616961A861EE6171
:100C2000284600F0D5F8002801D0FFF7DDFD6C6202
:100C300025630C2400210222204600F0D7FD204627
:100C400000F0C8FD07B0F0BD0024014014100240C0
:100C50009004002008000240F0B583B00E46044620
:100C6000016888680227400737D43420205C0128B7
:100C700033D002922546343501232B70607E012843
:100C800008D001932046FFF75DFD0746002824D1D8
:100C90002168019BA06B124A024018021018A06341
:100CA0000027E7631C2008604868102202434A605E
:100CB0002F70206B0C4A0D4D8562C262094A026397
:100CC000CA681A43CA6040313246029B00F0BCF841
:100CD0002068816804220A438260384603B0F0BD70
:100CE000FEF0FFFF210700083B070008B9060008D7
:100CF000B0B52121415C022917D10146203102689B
:100D000013680E24A343136013680125AB431360DB
:100D1000C26B036C2C469C40546000240C704D70D8
:100D2000416B002904D0884702E00421816301243B
:100D30002046B0BD2121405C7047F0B581B0C16B49
:100D4000046C00910D680268166873070FD50421C2
:100D50000F46A7403B462B4009D013689B0602D4A0
:100D600013688B43136000994F60C16A2BE0034600
:100D70002033B10713D50227A740394629400ED0AA
:100D80001168890605D411680A24A1431160012164
:100D900059700021197000994F60816A13E0310782
:100DA00014D50821A140294010D011680E25A9436F
:100DB000116001210A46A240009C6260816300220A
:100DC0001A705970016B002900D0884701B0F0BD3E
:100DD000F0B585B000282DD0044606462036022006
:100DE0007070A2CC236860680190A0680290E068EF
:100DF0000390206904900868104A02402A433A434D
:100E00001A4301980243029802430398024304984C
:100E100002430A600025E5620948206335700948ED
:100E20000C3C08181421FFF7F1F980002064012020
:100E3000707000E00125284605B0F0BD0FC0FFFF2F
:100E400000000240F8FFFDBFF0B582B0044620204C
:100E5000255C0220012D35D026462036012535702F
:100E60007778012F21D1022070700020A0632668BE
:100E70003768AF433760E76B0097276C0195BD403B
:100E8000009F7D6073606368102B174600D00F468B
:100E9000B760102B00D01146F1603168E26A002A79
:100EA000019B05D00E22114308E00021317009E0BA
:100EB0000A22114331603168042291433160316864
:100EC0001943316002B0F0BDB0B5044600F0B6F988
:100ED0000546601C02D004480078041900F0AEF901
:100EE000401BA042FAD3B0BD04000020F0B583B08F
:100EF0000D460146514E307E012801D1022752E0B5
:100F0000012737760C684E480291FFF78DFC012CC3
:100F100014D1002845D10020F0614A4C20680425F6
:100F20002843206020684021014321604448FFF7A6
:100F30007BFC07462068A843206032E0002830D1BF
:100F400000200190C04300952860029845688068A1
:100F500080024019854224D23A4C0198F061206801
:100F600002263043206065602068402101432160F3
:100F70003348FFF759FC07462068B0432060002F34
:100F80000CD1012080022D180299486889688902D5
:100F900008188542294EE0D3019F02E000980560C1
:100FA000264E00203076384603B0F0BD2548016853
:100FB00080220A43026000207047C046F0B585B029
:100FC00002AC0EC405461D4C207E012801D1022032
:100FD00032E0012727761A48FFF726FC002829D19E
:100FE000022D01D1009501E004200090012D00D1D7
:100FF00000950025134E2C46019510480199C161BA
:10100000306838433060220103980499FFF7CCF828
:101010006100029A88520A48FFF706FC3168B9431A
:101020003160002805D16D1CECB20098A042E4D8D4
:101030000020024C0021217605B0F0BD18060020EA
:1010400050C30000102002400648C168090601D4C0
:10105000002070470449016004490160C06800062F
:10106000C00F70470420024023016745AB89EFCDD4
:10107000F0B58EB00A68002A00D1D0E00546694874
:10108000854201D0052000E00320009001240026C5
:1010900003940C960B960A910995631E0398089386
:1010A0009840024000D1ACE007964D6803272B46DC
:1010B0003B405E1E012E02920195049417D803272F
:1010C0000C9CA740099A9168B9430A9EF668A6400D
:1010D0000E439660E906C90F089EB14056688643E4
:1010E0000E4356600A99FD430B9844000BE03846C6
:1010F0000C9CA040C543032B05D106950C98059088
:101100003B46099F21E0099FF86828408E68A64069
:101110000643FE60022B0695059416D11C20079C01
:1011200020400F218140089BDB089B00FB181E6AB2
:101130008E430A990F698740374326461F62099FED
:101140000A98416803230B4001E0079E0199049C23
:101150000598834038683D46069F3840184328600C
:101160008803800F0A994CD0304A10680121084347
:101170001060106808400D900C2333400F269E40ED
:101180000320089F87430D98294AB858B043BE18DA
:101190000927FF06099ABA42099D09D0254A9542B6
:1011A00007D025498D420099029A03D1022101E01E
:1011B0000021029A9940014331601B4800680A9956
:1011C0004E68F30301D5104300E09043164B1860BE
:1011D0005868B30301D5104300E09043124B5860A8
:1011E0009868F30201D5104300E090430E4B9860DD
:1011F000D868B30201D5104300E09043079E0A4A25
:10120000D0600A681046E040361D641C0C9B9B1C95
:101210000C930B9B5B1C0B93002800D03DE70EB09A
:10122000F0BDC046000C0048000401401810024008
:101230000800014000040048000800480148006818
:101240007047C04638060020B0B502464120135C06
:101250000220202B19D1134640331C78012C14D0C6
:1012600024205870106802680124A24302602203FF
:1012700005689543056002680A43026001682143DE
:1012800001600020187020215970B0BDB0B5024631
:101290004120135C0220202B19D1134640331C78C7
:1012A000012C14D024205870106802680124A24335
:1012B00002600F221202056895430902294301606A
:1012C0000168214301600020187020215970B0BDD1
:1012D00070477047F0B581B001688C690A68802357
:1012E00013400122E50506D5002B04D01502466CFB
:1012F00016434664CD61650507D5002B05D09502E0
:10130000466C082737434764CD61A40507D5002BF9
:1013100005D05202436C02241C434464CA61416CF0
:101320000B22114201D001F0DDF801B0F0BD80B513
:1013300002689169436B1268002B00D0984780BD0A
:1013400070470000F0B581B0002822D00446054661
:1013500040356878002804D100202870204600F02D
:1013600045F8242068702068026801218A430260E1
:101370000F2212066368934303618368184A13407F
:101380008360A368E668012E05D1CE0333438360F2
:1013900009E0012022E02127BF023B438360022EA7
:1013A00001D1CB02436043680E4E1E434660C368C2
:1013B0001340C360226963691343A26912021A438E
:1013C000C260E269236A1343036002680A43026051
:1013D00000206064202169702063A87001B0F0BD16
:1013E000FF7FFFFF0080000270470000B0B586B0AD
:1013F00000681749884228D1164C206801250395BA
:10140000690408432060206808400090042005908B
:1014100012200290032004904002019000980920BD
:10142000C00601A9FFF724FE6805A1680143A16079
:10143000A1680140009100981724002120460A4627
:1014400000F0D4F9204600F0C5F906B0B0BDC046A2
:10145000005400401410024070B545490878454ECC
:1014600030704A788B781B029A18CB780979090278
:10147000C91809048C18112811DD014621390629E3
:101480001BD8C0467944097949008F4403262B3084
:10149000353D4800394802210170447043E002287C
:1014A00006DC012810D0022846D13348446109E007
:1014B00003280CD0112836D03EE0FF2851D0122846
:1014C0003AD12D48006B30E02B4804612CE02A4DC6
:1014D0002846214601F0ECFE1FE02848C461264959
:1014E0000C600DE02548446223498C6008E02348E5
:1014F000046221494C6003E0204884621E49CC60AC
:1015000002220270C86A10E01B4D2846214601F0F5
:10151000CFFE1A48022101708460E86A05E017488E
:101520000221017044601448C06A7070010E31716C
:10153000010CF170000AB070114C0E4D114E0522D5
:1015400020462946334600F04BF80028F7D10C4CD2
:10155000074D05222046294600F018F80028F8D14A
:1015600070BDE1B2481E8141034801F0E1FEE3E7AE
:10157000B0050020B8050020C00500202004002090
:10158000D40400201027000070470000F0B5034687
:1015900041201C5C0220202C1DD11C4640342578A3
:1015A000012D18D0222060702020A07000205864E7
:1015B0000125EE031D686F68B7436F605A855A8D29
:1015C000054EDE6259620549596320701A85296803
:1015D000FC220A432A60F0BD0000FFFFB528000886
:1015E000F0B587B005464120285C0224202834D17C
:1015F0000F4600292ED01646002A2BD0294640310E
:101600000878012829D001200590087006930C461F
:10161000FFF714FE21216170202102940391A17033
:10162000059C00226A646E856F626A63E7032B681B
:101630005968B943596004900090082628463146FD
:10164000069B01F0E0F92968002809D04868384372
:10165000486002E0012460026864204607B0F0BDE3
:10166000069FCE61E8680228049E0ED100960824E9
:101670000022284621463B4601F0C5F9296800288A
:1016800002D00124E0030DE0CC6100960124210486
:101690000022284605923B4601F0B5F9002805D006
:1016A000E00329684A6802434A60D6E70124E00360
:1016B0000190688D002810D028463946324601F046
:1016C000FFF9002831D12868696A0A788262688D3A
:1016D000401E6885481C6862EBE72846394632465A
:1016E00001F0C6F93B462A680028039F019907D0FC
:1016F000506808435060686C0428AED1059868644F
:10170000D76104980090012428460E46224601F035
:101710007AF929684A6832434A60002802989CD1C5
:101720004770059C0470847097E728684168019AA7
:101730001143416091E700001A48007802490A68A5
:10174000101808607047C0463806002010B5BB4826
:10175000016810220A4302600024204600F004F8C9
:1017600000F022F8204610BDB0B504467D20C00030
:101770000C490978FEF74AFD0146DB480068FEF790
:1017800045FD00F0D1FB0125032C09D8002807D125
:101790000025E84321462A4600F028F8D348046093
:1017A0002846B0BD0400002082B00948016801222B
:1017B00011430160016811400191019911074268CC
:1017C0000A434260406808400090009802B07047A9
:1017D00018100240002805D41F2108400121814033
:1017E000014801607047C04600E100E0002805D4D0
:1017F0000322034693430C4A9A1806E00F22024044
:10180000083A03239A43074BD2188007C00E890178
:10181000C9B28140FF238340106898430843106099
:101820007047C0461CED00E000E400E0BFF34F8FBE
:10183000034804490160BFF34F8F00BFFDE7C04676
:101840000CED00E00400FA05F0B585B004468078A0
:10185000C007384B4AD001200390010718680840A0
:10186000029006D118680843186018680840049070
:1018700004980191304E3068C00511D403980702D6
:10188000306838433060FFF7D9FC0546306838428D
:1018900006D1FFF7D3FC401B6428F7D9032537E0B6
:1018A00003252802234B5968014012D06268024088
:1018B00091420ED00398000459685A6802435A6056
:1018C0005A6882435A6008461C4A10405860C8074C
:1018D00021D158681949084061680143596002984C
:1018E000002803D118680199884318602068C1074F
:1018F00005D0596903229143A2680A435A61002521
:10190000800605D5586910218843E1680143596173
:10191000284605B0F0BDFFF791FC0646714F054B18
:1019200058688007D5D4FFF789FC801BB842F6D9E8
:10193000EEE7C0461C10024000700040FFFCFFFFB5
:10194000F0B581B000284CD004463C4A1368012011
:1019500003408B4208D213680126B3430B43136044
:10196000126832408A4266D1009121688A070ED5FA
:101970004A0705D5072212026C4D2B6813432B60D2
:101980006A4D2A68F0239A43A36813432B60C90762
:1019900029D12A49086801263040009A904205D989
:1019A0000868B04308600868C00744D12078400741
:1019B00007D5072000025D4A11688143E0680843AB
:1019C000106000F097F8594909680906090F1C4A88
:1019D000515CC8404449086000263046FFF7C4FE09
:1019E00029E0012627E06168504A121F022904D02D
:1019F000012905D11268920304E01268920101E006
:101A000012689207064616D5484A10680326B04366
:101A100008431060FFF712FC0746324D4348006848
:101A20000C210140606880008142B2D0FFF706FCC3
:101A3000C01BA842F2D9304601B0F0BD00200240E0
:101A40006037000870B5FFF7F9FB0446234D28689E
:101A50008121014329602868800705D4FFF7EEFB48
:101A6000001B0228F7D90DE068681D490140696034
:101A70001C4E68680007800F06D0FFF7DFFB001BD5
:101A8000B042F6D9032070BD1748294901601748B4
:101A90000068FFF769FE002801D0012070BD2868AA
:101AA0001349014029600126B00429688143296057
:101AB000FFF7C4FB04462868800105D5FFF7BEFB8D
:101AC000001B0228F7D9DDE700206860E862286380
:101AD000A86031066A6A0A436A6270BD001002405B
:101AE0000CF8FFF088130000000000200800002020
:101AF000FFFFF6FE10B50D490A680C2313400C4891
:101B0000082B08D193021B0F0AA4E45C896AD20354
:101B100003D4104807E0044606E00F22114009A252
:101B2000515CFEF773FB4443204610BD0410024095
:101B300000127A0002030405060708090A0B0C0DBF
:101B40000E0F10100102030405060708090A0B0C0A
:101B50000D0E0F1000093D00F0B587B004460120BE
:101B6000002C00D197E104902078C007EB4E05943B
:101B700025D071680C20014004291AD071680140F9
:101B8000082902D17068C00313D46168012047049A
:101B9000002900D12AE1052900D13EE1012900D127
:101BA0003FE1010432688A4332608104306888432F
:101BB0003AE13068800302D5606800282ED0207892
:101BC000800744D570680007800F07D070680C212B
:101BD000014008290ED17068C0030BD4306880071B
:101BE000059A02D5D068012818D13068F8218843B9
:101BF000116929E03068059CE168002910D00121B5
:101C000008433060FFF71AFB05463068800717D499
:101C1000FFF714FB401B0228F7D912E104983AE1C0
:101C2000012188433060FFF709FB054630688007D3
:101C30000DD5FFF703FB411B03200229F6D92AE14A
:101C40003068F82188432169C90001433160059C4F
:101C50002078000722D42078400732D42078C006AC
:101C600000D4F8E0059A5069411D6ED0012875D165
:101C7000706B042101437163706B01210143716337
:101C8000FFF7DCFA0546706B800700D5DBE0FFF755
:101C9000D5FA411B03200229F5D9FCE0706AE169FD
:101CA000002943D0012108437062FFF7C7FA0546B7
:101CB000706A8007CFD4FFF7C1FA401B0228F7D91A
:101CC000BFE0012003900107F0690840029006D1AF
:101CD000F0690843F061F0690840069006980191A8
:101CE0008F4F3868C00510D4039804023868204329
:101CF0003860FFF7A3FA05463868204205D1FFF7A0
:101D00009DFA401B6428F7D99BE005988068854FB1
:101D1000002838D005284BD001284DD0306A0399CF
:101D200088433062306A0421884348E001218843B7
:101D30007062FFF783FA0546706A80078BD5FFF75C
:101D40007DFA401B0228F7D97BE0706B04218843A1
:101D50007063706BF8218843916979E0706B04219E
:101D600001437163706B012188437063FFF766FA6A
:101D70000546706B80076ED5FFF760FA411B0320A4
:101D80000229F6D987E0306A039988433062306AC5
:101D9000042188433062FFF751FA0546306A800714
:101DA0001AD5FFF74BFA411B0320B942F6D972E06E
:101DB000306A042101433162306A0399084330627A
:101DC000FFF73CFA0546306A800705D4FFF736FA7C
:101DD000401BB842F7D934E002980028059C00D097
:101DE0003CE7F06901998843F06137E70104326804
:101DF0008A4332608004316881433160FFF71EFA04
:101E00000546059C3068384200D1D8E6FFF716FA3F
:101E1000411B03206429F5D93DE0810432680A435F
:101E200032600104306808433060FFF707FA054666
:101E30003068384200D0C2E6FFF700FA401B642841
:101E4000F6D9032027E0706BF8218843059989694A
:101E5000C900014371630598046A002C1AD07068A8
:101E60000C210140082918D1012C049813D001201D
:101E7000030471680B40F26A059D6C6AA3420AD1A3
:101E80000F231A40EC6AA24205D19A041140AA6AB3
:101E9000914200D1002007B0F0BD01200206316858
:101EA0000492914331604706FFF7C8F90546022CBA
:101EB0000AD1049C3068384210D0FFF7BFF9411BAB
:101EC00003200229F6D9E6E730683842E2D0FFF76E
:101ED000B5F9411B03200229F6D9DCE7F06A0F218E
:101EE0008843059AD16A0143F1623D20000471687C
:101EF0008143906A0843516A01437160306820430E
:101F00003060FFF79BF9044630683842C2D1FFF7D2
:101F100095F9011B03200229F6D9BCE70010024005
:101F20000070004088130000401E010E01D0012007
:101F300070470749074A5060074803680B40032170
:101F400089075918016000209060072111607047CF
:101F5000FFFFFF0010E000E020ED00E07047704759
:101F600010B53C22825C012A01D1022010BD02463C
:101F70003C3202235370006843687024A3430C680A
:101F80001C43836844603B4CA04202D0E94CA04211
:101F900004D18024A3434968194381600020107054
:101FA0000121517010BDC046B0B500281DD00446B7
:101FB00005463C356878002804D10020287020466A
:101FC00000F016F80220687001CC214600F0CEFF28
:101FD0000120A872A870E87028716871A871E87172
:101FE0002872687268700020B0BD0120B0BD00008A
:101FF00010B582B000680C49884212D1012000025D
:10200000CD490A6802430A600968014001910198BC
:102010001324002120460A46FFF7E8FB2046FFF77D
:10202000D9FB02B010BDC046002000403D21415CFC
:10203000012918D101463D3102220A700168C868A1
:1020400001221043C860EC48814202D0E948814235
:102050000BD18868072303400020062B09D00B68AA
:1020600013430B60704701207047086810430860F5
:1020700000207047002C01407047B0B50446802016
:10208000C54320680169890717D5C168890714D538
:1020900029467E310161012121778069800703D0C3
:1020A0002046FFF7E9FF05E0204600F0ADF82046A6
:1020B00000F044F90020207720680169490718D50D
:1020C000C168490715D529467C3101610221217774
:1020D00080698005800F03D02046FFF7CDFF05E023
:1020E000204600F091F8204600F028F900202077E3
:1020F00020680169090717D5C168090714D5294661
:102100007831016104212177C069800703D020461E
:10211000FFF7B2FF05E0204600F076F8204600F019
:102120000DF90020207720680169C90618D5C1681B
:10213000C90615D529467031016108212177C0698A
:102140008005800F03D02046FFF796FF05E020466C
:1021500000F05AF8204600F0F1F8002020772068BF
:102160000169C90709D0C168C90706D029467F316E
:102170000161204600F042F920680169090607D58F
:10218000C168090604D505612046FFF7E7FE20680F
:102190000169490609D5C168490606D52946403175
:1021A0000161204600F02BF920680169890607D5F6
:1021B000C168890604D5603505612046FFF7CFFE6A
:1021C000B0BD000080B586B000688A49884216D14B
:1021D0000C48016801220592520411430160006815
:1021E0001040009000200490039002200290C02034
:1021F00001900920C006009901A9FEF739FF06B039
:1022000080BDC046141002407047000070B50546FE
:102210003C20285C012801D1022070BD0C462E46CE
:102220003C36012030700221CA41032A4BD8C046F7
:102230007A441279520097440110223128682146CD
:1022400000F0D6FE2868816908220A43826181690C
:1022500004229143816121690FE02868214600F042
:1022600003FF0121CA02286883691343836189023D
:1022700082698A4382612169090218301FE0286857
:10228000214600F02BFF2868C16908220A43C26179
:10229000C16904229143C16121690FE02868214688
:1022A00000F058FF0121CA022868C3691343C361C3
:1022B0008902C2698A43C261216909021C3002682D
:1022C0000A43026000200021317070BDB0B50028C3
:1022D0001DD0044605463C356878002804D100200E
:1022E0002870204600F016F80220687001CC2146C4
:1022F00000F03CFE0120A872A870E8702871687197
:10230000A871E8712872687268700020B0BD012061
:10231000B0BD000081B000683649884208D1064847
:10232000016802221143016000681040009000988B
:1023300001B07047000400401C10024070470000CC
:1023400002463E32002905D0082909D0042909D1C6
:10235000531C08E01378012B0FD10223137011E0F6
:10236000931C00E0D31C1B78012B06D10223082903
:1023700005D0042905D1537004E001207047937003
:1023800000E0D3701F221140012213468B400168E8
:10239000086A98430862086A184308621248814232
:1023A00004DC1448814213D0134803E00F488142F3
:1023B00002D00F48814206D1D0034B6C03434B64DB
:1023C0000D48814204D0086810430860002005E0F1
:1023D0008868072303400020062B00D170470B6854
:1023E00013430B607047C046FF4301400048014063
:1023F0000044014000040040002C01407047704739
:10240000FEE7000080B50748006880694005400F7E
:1024100003D00448FEF75EFF80BD0248FEF787FF49
:1024200080BDC046D404002080B5406A816B00297D
:1024300001D000224A63C16B002901D000224A6307
:1024400000F0CCFA80BD0000F0B583B04121415CC2
:1024500028220A40056806464036282A1ED1A96966
:10246000AC69AA680292EB68FE22240CC903C90F6A
:10247000C768022F17D101911946029BDF096740F7
:102480007C07A40F1BD00B461340002232702A6831
:10249000B824A2432A6001991A460CE0002030704B
:1024A0000820E86109E0002333702B68B826B343A5
:1024B0002B6014402246FEF70CFF03B0F0BD826C87
:1024C000521C8264826C022AF7D1054C1A462240C3
:1024D0000023836433700823EB610199EBE7C04666
:1024E000FF03000070B504464122865C42230020B1
:1024F000E054A84DE5626085656C0D436564A15CA0
:10250000283E25464035022E0AD828221140282987
:1025100000D0F2236878104028280CD0B4200BE0BB
:10252000697821680A68FE239A430A606A78602AFB
:1025300009D0202206E00420184321680B68834359
:102540000B6023486A706063A06B226B00281AD06E
:10255000212A01D0112A16D10A68520404D5012279
:1025600092030B6893430B60FEF7E4FB01281DD038
:1025700000202870A06B17494163FEF7B9FB0028C3
:1025800017D0A06B20E0E06B00280FD0222A01D0EA
:10259000122A0BD10A68120404D50122D2030B6857
:1025A00093430B60FEF7C6FB012803D1204600F0E1
:1025B00015FA70BD00202870E06B06494163FEF7F4
:1025C00097FB0028F5D0E06B416B884770BDC04693
:1025D000B528000829240008B0B56E4AC26200225E
:1025E000026341232024C4544223C254426303465D
:1025F0004033490712D5416A0468646A0C70416A25
:10260000491C4162018D002908D0448D641E448517
:10261000491E0185416C04240C434464597859785F
:1026200001680C68FE25AC430C601A701022CA6168
:10263000FEF7DAFEB0BDC046F0B583B002910446A5
:10264000006801684122A25C20230193C361213A02
:10265000D3B226464036092B0ED8424FDF40FB0747
:102660000AD0737852B292003FA39B5807681F406C
:102670000760474B9A5822630123DA0347681743E0
:10268000476047688A4D3D4045608569AD0701D583
:10269000002585628569ED0702D185691D43856145
:1026A0004D0409D41142029D11D00168914301608B
:1026B000E16B002908D10AE0990302688A430260AD
:1026C000A16B0029029D02D00968496861856907EC
:1026D0000FD5616A406A0870606A401C606204201D
:1026E0008543208D002804D0401E2085608D401E2B
:1026F0006085608D002803D0606C04210143616413
:102700000027B7706763606C00280BD0616C2046AF
:10271000FFF7E8FE7078282822D120462946FFF7E7
:102720005BFF1DE0E06AAC4DA8420AD170780199C8
:1027300071703770276322280FD12046FEF78CFE78
:102740000EE0204600F028F8E562019870703770BE
:1027500027632046FEF748FE02E02046FEF714FFFE
:1027600003B0F0BD0303000005FFFFFF03FFFFFF01
:1027700005FFFFFF05FFFFFF05FFFFFF05FFFFFF51
:1027800005FFFFFF05FFFFFF05FFFFFF03FFFFFF43
:10279000383700080000FFFFB0B501680C6842221E
:1027A0000023835402464032650403D4240405D533
:1027B000194C00E0174C0D6825400D605478292C09
:1027C0000CD12824547021250563137053782340BD
:1027D000F422D243282B16D0921C15E054782A2CD0
:1027E00010D1282454702225056313705378234098
:1027F000F422D243282B00D1B0320B6813400B6077
:10280000FEF72AFEB0BDB2320B6813400B60FEF734
:10281000BBFEB0BDFFBFFFFFFF7FFFFFF0B581B084
:102820000E46044600688169C90601D400203DE0D7
:102830001546014618314268920104D401229203E0
:10284000436813434360274640370A6892060FD413
:10285000711C08D0FEF7F2FC2021002E1DD0401B79
:10286000B0421AD8206881698906F1D5014618312D
:102870001022C2612022C2618269920701D5002222
:1028800082620A68D20703D10A68012313430B60EE
:102890004168074A0A4042600421606C0843606452
:1028A0002020787000203870B870012001B0F0BD91
:1028B00000E800FEF0B583B004464020205CE36AE7
:1028C000012801D102206AE016460D46204640301C
:1028D0000127029007700E40B00607D52046294612
:1028E00001971F46FFF7A8FE3B46019FF00616D44E
:1028F000700727D430074CD4B007029E4DD5608DA9
:10290000002863D02068616A0A788262481C60628D
:10291000208D401E2085608D401E60853DE0608DCD
:1029200000282AD020681021C161606C0421014375
:10293000616428480342029E2FD1616C2046FFF754
:10294000D1FD2AE0608D0028029E0CD0606A2168CB
:10295000496A0170606A401C6062208D401E2085BB
:10296000608D401E6085608D1B498B4215D000280C
:1029700013D12046FFF710FF0FE0029E7078790612
:102980008B420ED128280CD120462946FFF724FE81
:1029900003E02046FFF758FD029E0020307003B090
:1029A000F0BD717820681022C2610B4A9342F4D0C6
:1029B0002929F2D18169890701D5002181628169C4
:1029C000C907D6D1816939438161D2E70148034201
:1029D000E3D1CEE7FFFFFFFE0000FFFF80B54121FE
:1029E000425C01464031602A07D120224A70002211
:1029F0000A700263FEF76CFC80BD00220A7002635D
:102A0000FEF79EFC80BDF0B583B01D4616460F460E
:102A10000446036899693940C91B4A424A4100206B
:102A2000B24223D101902046403000900898029095
:102A3000691C08D0FEF702FC002D0DD00299401A47
:102A4000A84209D8236899693940C91B4A424A41BA
:102A5000B242EDD0019809E0606C20210843606427
:102A6000009A5170002010709070012003B0F0BDEA
:102A7000F0B581B016460F460446403000902068FD
:102A80008069800618D4204639463246FFF7C6FED4
:102A90000125002811D1FEF7D1FB002F02D0801BA9
:102AA000B842ECD9606C202108436064009A5170F0
:102AB00000201070907000E00025284601B0F0BDA5
:102AC000F0B583B00446006880690027800725D4EC
:102AD00015460E460297204640300190204631466A
:102AE0002A46FFF79BFE0127002817D1701C06D04D
:102AF000FEF7A4FB002E08D0401BB04205D820688A
:102B000080698007EAD5029F08E0606C20210843B5
:102B10006064019A5170002010709070384603B0C4
:102B2000F0BD0000B0B584B02421E1480022425439
:102B300001248462026204250F49FF23C23306C0C8
:102B40000260083801460C3134C18261C361FDF76F
:102B500089FF002801D0FDF747FE0720039001956B
:102B600020030290D24801A9FDF790FE002801D071
:102B7000FDF73AFE04B0B0BD0024014010B582B0AC
:102B80001048016801221143016000681040019063
:102B900001980924002120460A46FEF727FE204618
:102BA000FEF718FE02B010BD81B0012040040549B7
:102BB0000A6802430A60096801400091009801B068
:102BC0007047C0461410024010B5BB4C01201621BE
:102BD0004F4A504B23606260A160E0602046103095
:102BE0001421FDF710FB2046FEF7ACFB002801D0B6
:102BF000FDF7FAFDB0480021FEF726FB002801D0C2
:102C0000FDF7F2FDAC480021FEF740FB002801D0A3
:102C1000FDF7EAFD10BDC04610B5D3480021816123
:102C2000074A2F23F14C046043608160C260016158
:102C3000FFF7BAF9002801D0FDF7D6FD10BDC04658
:102C40008713000010B58AB000240994089401A8E5
:102C50001C21FDF7D8FA954884611849E14A14C04F
:102C60000460416084600838FFF730FB002801D021
:102C7000FDF7BAFD8D4808A9FFF772F9002801D0C9
:102C8000FDF7B2FD059403940294602001908748FB
:102C900001A92246FFF7BAFA002801D0FDF7A4FDEA
:102CA000824801A90422FFF7B1FA002801D0FDF7FC
:102CB0009BFD7E48FFF786FA0AB010BDE7030000CF
:102CC00070B57D4900220123114C124D0A62DE03CA
:102CD0000D604C600C46083449C44A618A61CA617F
:102CE0000846FEF72FFB002801D0FDF77DFD724856
:102CF0000021FEF7A9FA002801D0FDF775FD6E4806
:102D00000021FEF7C3FA002801D0FDF76DFD70BD6C
:102D10000E0900200054004084B05B48039003A8D3
:102D200000265A4D31462A4600F005FB00BF2878A0
:102D3000012819D02C202E5455486E62A86255489F
:102D40005549564A564B574C2C803F2424066B60FD
:102D5000AC60EE602A616E61A961E8612E6203A831
:102D600031462A4600F001FBA9684F4C204600F08E
:102D70009FFA10352FCD0295444D6D6A434FBF6ABF
:102D80006163A263A0624148406823600299616068
:102D9000A5603E4DE76020612C20295C204600F0B4
:102DA000C7FA424C20463146FFF7CAFA04212046B2
:102DB000FFF7C6FA2068466386633D483D49012215
:102DC0000192FDF749FF6878FFF77AFF0A20FEF7C6
:102DD0007BF8394839490522FEF7D8FB6248FFF7EE
:102DE00025F9314E2878002809D002280ED1019803
:102DF000287003A800212A4600F0B7FA06E003A8CD
:102E000000212A4600F0B1FAFEF710FD716B029125
:102E1000B06B00F009FC074626480088FDF7AEFBC2
:102E20000546308DFDF7AAFB04462846214600F0F2
:102E3000FBFB0146384600F09FFB0546708DFDF711
:102E40009DFB214600F0F0FB014628460F4DFDF7A3
:102E500093FA0146029800F01FFB0146F06200223F
:102E6000304600F0ABF9706AFDF736FB014630469C
:102E700000F03CFA01220E480E49FDF7EDFE052058
:102E8000FEF722F8AEE7C046000001012004002052
:102E9000000048420000204100003443FA00B80B13
:102EA0000000B44201020000C005002068050020B7
:102EB0005004002010040020D4040020B00500209D
:102EC000FEE77047704780B5FEF736FC80BD70B5F1
:102ED00094B008AC201D1C21FDF795F9002507953D
:102EE00006950595049501200D900B9012200890F1
:102EF00013950520C00412901195022610961020FB
:102F00000E900C9003950295019500952046FEF7D2
:102F100023FE002803D0EFF3108072B6FEE707957A
:102F2000069505960720049004A80121FEF708FDE8
:102F3000002803D0EFF3108072B6FEE7039520203F
:102F400000906846FEF780FC002803D0EFF3108065
:102F500072B6FEE714B070BD7047000080B502483D
:102F6000FFF78BF880BDC0462005002010B504682F
:102F70008F4A904202D01B4B984204D170239C434D
:102F80004B68234300E02346174CA04206DD9042E5
:102F90000AD0884CA04207D0874C03E0114CA042D5
:102FA00002D0124CA0421AD103242402A343CC68BD
:102FB0001C4380239C434B69234303608B68C3629B
:102FC0000B688362904205D07A4A904202D07A4AD6
:102FD000904201D1096901630121416110BD1C4684
:102FE000E7E7C04600040040FF2B014000200040FE
:102FF000F0B581B0026A01239A430262026A022399
:103000009A438E68164344680A6800928369684F41
:10301000B84205D0674DA84202D0674DA84206D1FC
:103020000C25AE43CD6804229543354300E0354678
:10303000B84205D05F4A904202D05F4A904207D121
:103040000322120294434E698A692643164300E024
:103050002646466073229343009A1343836149686E
:103060004163056201B0F0BDF0B581B0026A102382
:103070009A430262026A20239A438B681E01164318
:1030800044680A6800928269494FB84201D03546C7
:1030900006E0C025AE43CD682D0140239D43354356
:1030A000B84205D0434B984202D0434B984208D1D6
:1030B00003239B029C434B698E699B002343B4000E
:1030C0001C43446073231B029A43009B1B0213435F
:1030D000836149688163056201B0F0BDF0B581B0DC
:1030E00001221302046A9C4304625202036A93435E
:1030F0008A6816021E4344680A680092C3692C4F0E
:10310000B84201D0354607E00325AD02AE43CD6895
:103110002A020F4D15403543B84205D0254A90424A
:1031200002D0254A904208D10322120394434A69EF
:103130008E69120122433401144344607322934385
:10314000009A1343C3614968C163056201B0F0BDD1
:1031500000FBFFFFF0B581B001221303046A9C431A
:103160000462036A44688D6800950E68C569104F53
:10317000B84205D00F4FB84202D00F4FB84205D128
:103180009703BC434F69BF01274300E027464760D0
:1031900073242402A54334022C43C46149680164AA
:1031A00051038B43009909031943016201B0F0BD3B
:1031B000002C01400048014000440140F0B583B0BC
:1031C00002920A4604460169104600F02DFA0546AF
:1031D000276A2062A16900F05FF90646A061616973
:1031E000029800F021FA009001952846394600F037
:1031F0001BFA02902C4F3046394600F041F9002866
:1032000006D12A4F3046394600F02FF9002801D167
:10321000A7613E46E169009800F03EF90546E0618D
:10322000214F394600F02CF9002806D11F4F2846BF
:10323000394600F01AF9002801D1E7613D462168BE
:10324000019800F099F90746A068314600F094F91A
:103250000146384600F020F906466068294600F02D
:103260008BF90146304600F017F90546E1680298EF
:1032700000F082F90146284600F00EF90646606229
:10328000256D294600F0FCF8002808D10120C00770
:1032900045403046294600F0E8F8002801D1656233
:1032A0002E46304603B0F0BD0000FA430000FAC3DA
:1032B000F0B581B00D4604467F20C605084631466C
:1032C00000F0DEF8002808D100272846394600F033
:1032D000CCF800282E4600D13E460349304600F087
:1032E0004BF9206501B0F0BD00007A443C22805CBF
:1032F00000280CD00C4800687D22D2000023002951
:103300000BD44363914200DB11468163704706484A
:10331000006800218163416370478363034B9942D6
:1033200000DB4A42426370476805002018FCFFFF3B
:103330003C2281547047F0B581B014460D460646D4
:103340000078002803D100F035F8012030703026D5
:103350002746A8B200F06AF838706D1C7F1C761EF4
:103360003004F6D1204601B0F0BDF0B581B014466E
:103370000E4605460078002803D100F01BF8012016
:103380002870302700942178B0B200F053F8761CF2
:10339000641C7F1E3804F6D1A878002805D000F000
:1033A00011F80120E870002100E001210098697007
:1033B00001B0F0BD80B50120820220481849FCF719
:1033C000C9FE80BDF0B585B001200490144C039473
:1033D000002502950195FDF737FE00281DD1114803
:1033E0003421016002A801A9FDF780FD002812D157
:1033F000124E0D4F72597019436803202146FDF794
:10340000DDFD002800D10835002804D12046083011
:10341000BC420446EED3FDF7C9FD05B0F0BDC04681
:10342000007C00080C200240F87F00080349085C7B
:103430007047C046014A11547047C0461000002032
:10344000FEF700FBFEF782F9FFF741FDFFF7ACFB4B
:10345000FFF794FBFFF766FBFFF7B6FBFFF7F2FB06
:10346000FFF7DAFBFFF758FCFEE710B500F05AF85B
:10347000EFF30080800001D5012010BD002010BDB9
:1034800010B500F04FF8EFF300804000800F0128E6
:1034900000D0002010BD000070B50125ED0704002C
:1034A0004C4020D4441A01D2001B0919C60D4B0010
:1034B000F2B2FF2A29D01B0E2CD000020C022843A6
:1034C0002C43D31ADC40051910D2280A02D3401C21
:1034D0006D0611D0761EF6058019FF2A00DA70BD40
:1034E000C00DC00570BD694000F0A4F8012005437F
:1034F000C541521C761CE8E764089C40C901614044
:103500008900E7D10124A043E4E71B0E440200D068
:10351000034870BD002AFCD1C00FC00770BD00BFBA
:103520000000C07F0123DB0502000A430DD4DA420C
:1035300003D49A4207D488427047D84214D4D9425F
:1035400012D48842704780427047DA4203D59A42CB
:10355000F9D5814270475B004200DA4204D24A004A
:10356000DA4201D28142704710B5024AFDF70AF8EB
:1035700010BD00BF0900130470B5420064414B0048
:103580005C41120E39D01B0E38D0FF2A3CD0FF2BE5
:103590003AD0D2187F3A40024902400A490A4518F7
:1035A000ED0106004E43000A090A48430104731A5C
:1035B0004019190C4318990F04D05B0801214907E1
:1035C0005B1A521CD80904D3401CF50301D19D0697
:1035D00007D0FF2A08D2D50506D0E40720434019BA
:1035E00070BD0125A843F4E7002A01DCE00770BDA7
:1035F0002402FF202043C00570BD1B0EFF2A03D00C
:10360000FF2B01D0E00770BDFF2636064500B5420E
:1036100006D84D00B54203D8D218FF2A00D0E7E7FC
:10362000004870BD0000C07F70B50125ED070400A3
:103630004C4022D4441A02D26C40001B0919C60D1A
:103640004B00F2B2FF2A4BD01B0E50D000020C02EE
:10365000A8432C43D31ADC40051B05D5AD0019D374
:103660006D08761E521E37D0F605280A01D2801941
:1036700070BD70416D0603D070BD6940FFF712FF49
:103680009C4009026140490001D0401E70BD0124E8
:10369000A04370BD6D081DD001202B0C01D12D045D
:1036A00010302B0E01D12D0208302B0F01D12D012E
:1036B000001DAB0F01D1AD00801CEB0F01D16D00DF
:1036C000401C361A121A6D00680AF5054019012AC5
:1036D00002DB70BD002070BDC036300AC00770BD6F
:1036E0001B0E440201D1FF2B00D1024870BD002AFD
:1036F000F0D070BD0000C07F81828384858687887A
:10370000898B8C8D8E8F919293959697999A9C9D8B
:103710009FA0A2A3A5A7A8AAACAEB0B2B3B5B7B9F3
:10372000BCBEC0C2C5C7C9CCCED1D4D7D9DCDFE2BC
:10373000E6E9ECF0F3F7FAFE2100000022000000B9
:1037400021000000210000002100000021000000F5
:1037500021000000210000002100000022000000E4
:103760000000000000000000010203040607080931
:10377000903700080000002010000000F40000084E
:10378000A037000810000020300A000010010008D7
:1037900000127A0001000000040000000000000098
:04000005080000B13E
:00000001FF
